{
  "_format": "hh-sol-artifact-1",
  "contractName": "NFTMarket",
  "sourceName": "contracts/NFTMarketplace.sol",
  "abi": [
    {
      "inputs": [
        {
          "internalType": "address",
          "name": "_treasury",
          "type": "address"
        },
        {
          "internalType": "address",
          "name": "_xPhunkAddress",
          "type": "address"
        }
      ],
      "stateMutability": "nonpayable",
      "type": "constructor"
    },
    {
      "anonymous": false,
      "inputs": [
        {
          "indexed": true,
          "internalType": "address",
          "name": "previousOwner",
          "type": "address"
        },
        {
          "indexed": true,
          "internalType": "address",
          "name": "newOwner",
          "type": "address"
        }
      ],
      "name": "OwnershipTransferred",
      "type": "event"
    },
    {
      "anonymous": false,
      "inputs": [
        {
          "indexed": false,
          "internalType": "address",
          "name": "account",
          "type": "address"
        }
      ],
      "name": "Paused",
      "type": "event"
    },
    {
      "anonymous": false,
      "inputs": [
        {
          "indexed": true,
          "internalType": "uint256",
          "name": "phunkIndex",
          "type": "uint256"
        },
        {
          "indexed": false,
          "internalType": "uint256",
          "name": "value",
          "type": "uint256"
        },
        {
          "indexed": true,
          "internalType": "address",
          "name": "fromAddress",
          "type": "address"
        }
      ],
      "name": "PhunkBidEntered",
      "type": "event"
    },
    {
      "anonymous": false,
      "inputs": [
        {
          "indexed": true,
          "internalType": "uint256",
          "name": "phunkIndex",
          "type": "uint256"
        },
        {
          "indexed": false,
          "internalType": "uint256",
          "name": "value",
          "type": "uint256"
        },
        {
          "indexed": true,
          "internalType": "address",
          "name": "fromAddress",
          "type": "address"
        }
      ],
      "name": "PhunkBidWithdrawn",
      "type": "event"
    },
    {
      "anonymous": false,
      "inputs": [
        {
          "indexed": true,
          "internalType": "uint256",
          "name": "phunkIndex",
          "type": "uint256"
        },
        {
          "indexed": false,
          "internalType": "uint256",
          "name": "value",
          "type": "uint256"
        },
        {
          "indexed": true,
          "internalType": "address",
          "name": "fromAddress",
          "type": "address"
        },
        {
          "indexed": true,
          "internalType": "address",
          "name": "toAddress",
          "type": "address"
        }
      ],
      "name": "PhunkBought",
      "type": "event"
    },
    {
      "anonymous": false,
      "inputs": [
        {
          "indexed": true,
          "internalType": "uint256",
          "name": "phunkIndex",
          "type": "uint256"
        }
      ],
      "name": "PhunkNoLongerForSale",
      "type": "event"
    },
    {
      "anonymous": false,
      "inputs": [
        {
          "indexed": true,
          "internalType": "uint256",
          "name": "phunkIndex",
          "type": "uint256"
        },
        {
          "indexed": false,
          "internalType": "uint256",
          "name": "minValue",
          "type": "uint256"
        },
        {
          "indexed": true,
          "internalType": "address",
          "name": "toAddress",
          "type": "address"
        }
      ],
      "name": "PhunkOffered",
      "type": "event"
    },
    {
      "anonymous": false,
      "inputs": [
        {
          "indexed": false,
          "internalType": "address",
          "name": "account",
          "type": "address"
        }
      ],
      "name": "Unpaused",
      "type": "event"
    },
    {
      "inputs": [
        {
          "internalType": "uint256",
          "name": "phunkIndex",
          "type": "uint256"
        },
        {
          "internalType": "uint256",
          "name": "minPrice",
          "type": "uint256"
        }
      ],
      "name": "acceptBidForPhunk",
      "outputs": [],
      "stateMutability": "nonpayable",
      "type": "function"
    },
    {
      "inputs": [
        {
          "internalType": "uint256",
          "name": "phunkIndex",
          "type": "uint256"
        }
      ],
      "name": "buyPhunk",
      "outputs": [],
      "stateMutability": "payable",
      "type": "function"
    },
    {
      "inputs": [
        {
          "internalType": "uint256",
          "name": "phunkIndex",
          "type": "uint256"
        }
      ],
      "name": "enterBidForPhunk",
      "outputs": [],
      "stateMutability": "payable",
      "type": "function"
    },
    {
      "inputs": [],
      "name": "getListingFee",
      "outputs": [
        {
          "internalType": "uint256",
          "name": "",
          "type": "uint256"
        }
      ],
      "stateMutability": "view",
      "type": "function"
    },
    {
      "inputs": [
        {
          "internalType": "uint256",
          "name": "phunkIndex",
          "type": "uint256"
        },
        {
          "internalType": "uint256",
          "name": "minSalePriceInWei",
          "type": "uint256"
        }
      ],
      "name": "offerPhunkForSale",
      "outputs": [],
      "stateMutability": "nonpayable",
      "type": "function"
    },
    {
      "inputs": [
        {
          "internalType": "uint256",
          "name": "phunkIndex",
          "type": "uint256"
        },
        {
          "internalType": "uint256",
          "name": "minSalePriceInWei",
          "type": "uint256"
        },
        {
          "internalType": "address",
          "name": "toAddress",
          "type": "address"
        }
      ],
      "name": "offerPhunkForSaleToAddress",
      "outputs": [],
      "stateMutability": "nonpayable",
      "type": "function"
    },
    {
      "inputs": [],
      "name": "owner",
      "outputs": [
        {
          "internalType": "address",
          "name": "",
          "type": "address"
        }
      ],
      "stateMutability": "view",
      "type": "function"
    },
    {
      "inputs": [],
      "name": "pause",
      "outputs": [],
      "stateMutability": "nonpayable",
      "type": "function"
    },
    {
      "inputs": [],
      "name": "paused",
      "outputs": [
        {
          "internalType": "bool",
          "name": "",
          "type": "bool"
        }
      ],
      "stateMutability": "view",
      "type": "function"
    },
    {
      "inputs": [
        {
          "internalType": "address",
          "name": "",
          "type": "address"
        }
      ],
      "name": "pendingWithdrawals",
      "outputs": [
        {
          "internalType": "uint256",
          "name": "",
          "type": "uint256"
        }
      ],
      "stateMutability": "view",
      "type": "function"
    },
    {
      "inputs": [
        {
          "internalType": "uint256",
          "name": "",
          "type": "uint256"
        }
      ],
      "name": "phunkBids",
      "outputs": [
        {
          "internalType": "bool",
          "name": "hasBid",
          "type": "bool"
        },
        {
          "internalType": "uint256",
          "name": "phunkIndex",
          "type": "uint256"
        },
        {
          "internalType": "address",
          "name": "bidder",
          "type": "address"
        },
        {
          "internalType": "uint256",
          "name": "value",
          "type": "uint256"
        }
      ],
      "stateMutability": "view",
      "type": "function"
    },
    {
      "inputs": [
        {
          "internalType": "uint256",
          "name": "phunkIndex",
          "type": "uint256"
        }
      ],
      "name": "phunkNoLongerForSale",
      "outputs": [],
      "stateMutability": "nonpayable",
      "type": "function"
    },
    {
      "inputs": [],
      "name": "phunksAddress",
      "outputs": [
        {
          "internalType": "address",
          "name": "",
          "type": "address"
        }
      ],
      "stateMutability": "view",
      "type": "function"
    },
    {
      "inputs": [
        {
          "internalType": "uint256",
          "name": "",
          "type": "uint256"
        }
      ],
      "name": "phunksOfferedForSale",
      "outputs": [
        {
          "internalType": "bool",
          "name": "isForSale",
          "type": "bool"
        },
        {
          "internalType": "uint256",
          "name": "phunkIndex",
          "type": "uint256"
        },
        {
          "internalType": "address",
          "name": "seller",
          "type": "address"
        },
        {
          "internalType": "uint256",
          "name": "minValue",
          "type": "uint256"
        },
        {
          "internalType": "address",
          "name": "onlySellTo",
          "type": "address"
        }
      ],
      "stateMutability": "view",
      "type": "function"
    },
    {
      "inputs": [],
      "name": "renounceOwnership",
      "outputs": [],
      "stateMutability": "nonpayable",
      "type": "function"
    },
    {
      "inputs": [
        {
          "internalType": "address",
          "name": "newPhunksAddress",
          "type": "address"
        }
      ],
      "name": "setxPhunkAddress",
      "outputs": [],
      "stateMutability": "nonpayable",
      "type": "function"
    },
    {
      "inputs": [
        {
          "internalType": "address",
          "name": "newOwner",
          "type": "address"
        }
      ],
      "name": "transferOwnership",
      "outputs": [],
      "stateMutability": "nonpayable",
      "type": "function"
    },
    {
      "inputs": [],
      "name": "unpause",
      "outputs": [],
      "stateMutability": "nonpayable",
      "type": "function"
    },
    {
      "inputs": [
        {
          "internalType": "uint256",
          "name": "_listingFee",
          "type": "uint256"
        }
      ],
      "name": "updateListingFee",
      "outputs": [],
      "stateMutability": "payable",
      "type": "function"
    },
    {
      "inputs": [],
      "name": "withdraw",
      "outputs": [],
      "stateMutability": "nonpayable",
      "type": "function"
    },
    {
      "inputs": [
        {
          "internalType": "uint256",
          "name": "phunkIndex",
          "type": "uint256"
        }
      ],
      "name": "withdrawBidForPhunk",
      "outputs": [],
      "stateMutability": "nonpayable",
      "type": "function"
    }
  ],
  "bytecode": "0x608060405260146003553480156200001657600080fd5b5060405162003ca038038062003ca083398181016040528101906200003c91906200023e565b60016000819055506000600160006101000a81548160ff0219169083151502179055506200007f620000736200010960201b60201c565b6200011160201b60201c565b81600460006101000a81548173ffffffffffffffffffffffffffffffffffffffff021916908373ffffffffffffffffffffffffffffffffffffffff16021790555080600260006101000a81548173ffffffffffffffffffffffffffffffffffffffff021916908373ffffffffffffffffffffffffffffffffffffffff160217905550505062000285565b600033905090565b600060018054906101000a900473ffffffffffffffffffffffffffffffffffffffff169050816001806101000a81548173ffffffffffffffffffffffffffffffffffffffff021916908373ffffffffffffffffffffffffffffffffffffffff1602179055508173ffffffffffffffffffffffffffffffffffffffff168173ffffffffffffffffffffffffffffffffffffffff167f8be0079c531659141344cd1fd0a4f28419497f9722a3daafe3b4186f6b6457e060405160405180910390a35050565b600080fd5b600073ffffffffffffffffffffffffffffffffffffffff82169050919050565b60006200020682620001d9565b9050919050565b6200021881620001f9565b81146200022457600080fd5b50565b60008151905062000238816200020d565b92915050565b60008060408385031215620002585762000257620001d4565b5b6000620002688582860162000227565b92505060206200027b8582860162000227565b9150509250929050565b613a0b80620002956000396000f3fe60806040526004361061012a5760003560e01c8063715018a6116100ab578063b8fe6abe1161006f578063b8fe6abe14610376578063bad9f860146103a1578063f2fde38b146103ca578063f3f43703146103f3578063f79d91ae14610430578063f8529df31461044c5761012a565b8063715018a6146102b45780638456cb59146102cb5780638da5cb5b146102e25780638e65f8f11461030d578063941c9847146103365761012a565b80635761a916116100f25780635761a916146101da5780635abe357a146102035780635c975abb14610244578063640da8e51461026f5780636d728796146102985761012a565b806306c5eb3e1461012f5780630c0697a61461015a5780631904d20a146101835780633ccfd60b146101ac5780633f4ba83a146101c3575b600080fd5b34801561013b57600080fd5b50610144610468565b6040516101519190612e07565b60405180910390f35b34801561016657600080fd5b50610181600480360381019061017c9190612e5d565b610492565b005b34801561018f57600080fd5b506101aa60048036038101906101a59190612e9d565b6107bc565b005b3480156101b857600080fd5b506101c1610a7b565b005b3480156101cf57600080fd5b506101d8610c2d565b005b3480156101e657600080fd5b5061020160048036038101906101fc9190612e9d565b610cfa565b005b34801561020f57600080fd5b5061022a60048036038101906102259190612e9d565b610fde565b60405161023b959493929190612ef4565b60405180910390f35b34801561025057600080fd5b50610259611061565b6040516102669190612f47565b60405180910390f35b34801561027b57600080fd5b5061029660048036038101906102919190612f8e565b611078565b005b6102b260048036038101906102ad9190612e9d565b611138565b005b3480156102c057600080fd5b506102c961159b565b005b3480156102d757600080fd5b506102e0611623565b005b3480156102ee57600080fd5b506102f76116f1565b6040516103049190612e07565b60405180910390f35b34801561031957600080fd5b50610334600480360381019061032f9190612fbb565b611719565b005b34801561034257600080fd5b5061035d60048036038101906103589190612e9d565b611a42565b60405161036d949392919061300e565b60405180910390f35b34801561038257600080fd5b5061038b611a9f565b6040516103989190613053565b60405180910390f35b3480156103ad57600080fd5b506103c860048036038101906103c39190612e5d565b611aa9565b005b3480156103d657600080fd5b506103f160048036038101906103ec9190612f8e565b612162565b005b3480156103ff57600080fd5b5061041a60048036038101906104159190612f8e565b61225a565b6040516104279190613053565b60405180910390f35b61044a60048036038101906104459190612e9d565b612272565b005b61046660048036038101906104619190612e9d565b61230c565b005b6000600260009054906101000a900473ffffffffffffffffffffffffffffffffffffffff16905090565b61049a611061565b156104da576040517f08c379a00000000000000000000000000000000000000000000000000000000081526004016104d1906130cb565b60405180910390fd5b60026000541415610520576040517f08c379a000000000000000000000000000000000000000000000000000000000815260040161051790613137565b60405180910390fd5b60026000819055503373ffffffffffffffffffffffffffffffffffffffff16600260009054906101000a900473ffffffffffffffffffffffffffffffffffffffff1673ffffffffffffffffffffffffffffffffffffffff16636352211e846040518263ffffffff1660e01b815260040161059a9190613053565b602060405180830381865afa1580156105b7573d6000803e3d6000fd5b505050506040513d601f19601f820116820180604052508101906105db919061316c565b73ffffffffffffffffffffffffffffffffffffffff1614610631576040517f08c379a00000000000000000000000000000000000000000000000000000000081526004016106289061320b565b60405180910390fd5b6040518060a001604052806001151581526020018381526020013373ffffffffffffffffffffffffffffffffffffffff168152602001828152602001600073ffffffffffffffffffffffffffffffffffffffff168152506005600084815260200190815260200160002060008201518160000160006101000a81548160ff0219169083151502179055506020820151816001015560408201518160020160006101000a81548173ffffffffffffffffffffffffffffffffffffffff021916908373ffffffffffffffffffffffffffffffffffffffff1602179055506060820151816003015560808201518160040160006101000a81548173ffffffffffffffffffffffffffffffffffffffff021916908373ffffffffffffffffffffffffffffffffffffffff160217905550905050600073ffffffffffffffffffffffffffffffffffffffff16827f56c70414e74a5c3a36f4d7822661f950a52445120c261e1aca8eb98162d4e09d836040516107a89190613053565b60405180910390a360016000819055505050565b60026000541415610802576040517f08c379a00000000000000000000000000000000000000000000000000000000081526004016107f990613137565b60405180910390fd5b60026000819055503373ffffffffffffffffffffffffffffffffffffffff16600260009054906101000a900473ffffffffffffffffffffffffffffffffffffffff1673ffffffffffffffffffffffffffffffffffffffff16636352211e836040518263ffffffff1660e01b815260040161087c9190613053565b602060405180830381865afa158015610899573d6000803e3d6000fd5b505050506040513d601f19601f820116820180604052508101906108bd919061316c565b73ffffffffffffffffffffffffffffffffffffffff1614610913576040517f08c379a000000000000000000000000000000000000000000000000000000000815260040161090a9061320b565b60405180910390fd5b6040518060a001604052806000151581526020018281526020013373ffffffffffffffffffffffffffffffffffffffff16815260200160008152602001600073ffffffffffffffffffffffffffffffffffffffff168152506005600083815260200190815260200160002060008201518160000160006101000a81548160ff0219169083151502179055506020820151816001015560408201518160020160006101000a81548173ffffffffffffffffffffffffffffffffffffffff021916908373ffffffffffffffffffffffffffffffffffffffff1602179055506060820151816003015560808201518160040160006101000a81548173ffffffffffffffffffffffffffffffffffffffff021916908373ffffffffffffffffffffffffffffffffffffffff160217905550905050807fecbc479f5da5c26817448a40f3eb43debe1723fa03f7f7165d2aebc28338634e60405160405180910390a2600160008190555050565b60026000541415610ac1576040517f08c379a0000000000000000000000000000000000000000000000000000000008152600401610ab890613137565b60405180910390fd5b60026000819055506000600760003373ffffffffffffffffffffffffffffffffffffffff1673ffffffffffffffffffffffffffffffffffffffff1681526020019081526020016000205490506000600760003373ffffffffffffffffffffffffffffffffffffffff1673ffffffffffffffffffffffffffffffffffffffff1681526020019081526020016000208190555060006103e860035483610b65919061325a565b610b6f91906132e3565b9050600460009054906101000a900473ffffffffffffffffffffffffffffffffffffffff1673ffffffffffffffffffffffffffffffffffffffff166108fc829081150290604051600060405180830381858888f19350505050158015610bd9573d6000803e3d6000fd5b503373ffffffffffffffffffffffffffffffffffffffff166108fc839081150290604051600060405180830381858888f19350505050158015610c20573d6000803e3d6000fd5b5050506001600081905550565b610c35611061565b610c74576040517f08c379a0000000000000000000000000000000000000000000000000000000008152600401610c6b90613360565b60405180910390fd5b610c7c612bb7565b73ffffffffffffffffffffffffffffffffffffffff16610c9a6116f1565b73ffffffffffffffffffffffffffffffffffffffff1614610cf0576040517f08c379a0000000000000000000000000000000000000000000000000000000008152600401610ce7906133cc565b60405180910390fd5b610cf8612bbf565b565b60026000541415610d40576040517f08c379a0000000000000000000000000000000000000000000000000000000008152600401610d3790613137565b60405180910390fd5b60026000819055506000600660008381526020019081526020016000206040518060800160405290816000820160009054906101000a900460ff16151515158152602001600182015481526020016002820160009054906101000a900473ffffffffffffffffffffffffffffffffffffffff1673ffffffffffffffffffffffffffffffffffffffff1673ffffffffffffffffffffffffffffffffffffffff16815260200160038201548152505090503373ffffffffffffffffffffffffffffffffffffffff16816040015173ffffffffffffffffffffffffffffffffffffffff1614610e61576040517f08c379a0000000000000000000000000000000000000000000000000000000008152600401610e5890613438565b60405180910390fd5b3373ffffffffffffffffffffffffffffffffffffffff16827fff7558f932f454bdaae94435ae56ef94bb7f3845edb4dceeb67b27e793025cc18360600151604051610eac9190613053565b60405180910390a36000816060015190506040518060800160405280600015158152602001848152602001600073ffffffffffffffffffffffffffffffffffffffff16815260200160008152506006600085815260200190815260200160002060008201518160000160006101000a81548160ff0219169083151502179055506020820151816001015560408201518160020160006101000a81548173ffffffffffffffffffffffffffffffffffffffff021916908373ffffffffffffffffffffffffffffffffffffffff160217905550606082015181600301559050503373ffffffffffffffffffffffffffffffffffffffff166108fc829081150290604051600060405180830381858888f19350505050158015610fd0573d6000803e3d6000fd5b505050600160008190555050565b60056020528060005260406000206000915090508060000160009054906101000a900460ff16908060010154908060020160009054906101000a900473ffffffffffffffffffffffffffffffffffffffff16908060030154908060040160009054906101000a900473ffffffffffffffffffffffffffffffffffffffff16905085565b6000600160009054906101000a900460ff16905090565b611080612bb7565b73ffffffffffffffffffffffffffffffffffffffff1661109e6116f1565b73ffffffffffffffffffffffffffffffffffffffff16146110f4576040517f08c379a00000000000000000000000000000000000000000000000000000000081526004016110eb906133cc565b60405180910390fd5b80600260006101000a81548173ffffffffffffffffffffffffffffffffffffffff021916908373ffffffffffffffffffffffffffffffffffffffff16021790555050565b611140611061565b15611180576040517f08c379a0000000000000000000000000000000000000000000000000000000008152600401611177906130cb565b60405180910390fd5b600260005414156111c6576040517f08c379a00000000000000000000000000000000000000000000000000000000081526004016111bd90613137565b60405180910390fd5b60026000819055503373ffffffffffffffffffffffffffffffffffffffff16600260009054906101000a900473ffffffffffffffffffffffffffffffffffffffff1673ffffffffffffffffffffffffffffffffffffffff16636352211e836040518263ffffffff1660e01b81526004016112409190613053565b602060405180830381865afa15801561125d573d6000803e3d6000fd5b505050506040513d601f19601f82011682018060405250810190611281919061316c565b73ffffffffffffffffffffffffffffffffffffffff1614156112d8576040517f08c379a00000000000000000000000000000000000000000000000000000000081526004016112cf906134a4565b60405180910390fd5b600034141561131c576040517f08c379a000000000000000000000000000000000000000000000000000000000815260040161131390613510565b60405180910390fd5b6000600660008381526020019081526020016000206040518060800160405290816000820160009054906101000a900460ff16151515158152602001600182015481526020016002820160009054906101000a900473ffffffffffffffffffffffffffffffffffffffff1673ffffffffffffffffffffffffffffffffffffffff1673ffffffffffffffffffffffffffffffffffffffff168152602001600382015481525050905080606001513411611409576040517f08c379a00000000000000000000000000000000000000000000000000000000081526004016114009061357c565b60405180910390fd5b60008160600151111561147557806060015160076000836040015173ffffffffffffffffffffffffffffffffffffffff1673ffffffffffffffffffffffffffffffffffffffff168152602001908152602001600020600082825461146d919061359c565b925050819055505b60405180608001604052806001151581526020018381526020013373ffffffffffffffffffffffffffffffffffffffff168152602001348152506006600084815260200190815260200160002060008201518160000160006101000a81548160ff0219169083151502179055506020820151816001015560408201518160020160006101000a81548173ffffffffffffffffffffffffffffffffffffffff021916908373ffffffffffffffffffffffffffffffffffffffff160217905550606082015181600301559050503373ffffffffffffffffffffffffffffffffffffffff16827f5e5c444a9060fa9489d7e455b3a6f1c2f9b2ac7119c1cee6dc5fe6160c545908346040516115879190613053565b60405180910390a350600160008190555050565b6115a3612bb7565b73ffffffffffffffffffffffffffffffffffffffff166115c16116f1565b73ffffffffffffffffffffffffffffffffffffffff1614611617576040517f08c379a000000000000000000000000000000000000000000000000000000000815260040161160e906133cc565b60405180910390fd5b6116216000612c61565b565b61162b611061565b1561166b576040517f08c379a0000000000000000000000000000000000000000000000000000000008152600401611662906130cb565b60405180910390fd5b611673612bb7565b73ffffffffffffffffffffffffffffffffffffffff166116916116f1565b73ffffffffffffffffffffffffffffffffffffffff16146116e7576040517f08c379a00000000000000000000000000000000000000000000000000000000081526004016116de906133cc565b60405180910390fd5b6116ef612d24565b565b600060018054906101000a900473ffffffffffffffffffffffffffffffffffffffff16905090565b611721611061565b15611761576040517f08c379a0000000000000000000000000000000000000000000000000000000008152600401611758906130cb565b60405180910390fd5b600260005414156117a7576040517f08c379a000000000000000000000000000000000000000000000000000000000815260040161179e90613137565b60405180910390fd5b60026000819055503373ffffffffffffffffffffffffffffffffffffffff16600260009054906101000a900473ffffffffffffffffffffffffffffffffffffffff1673ffffffffffffffffffffffffffffffffffffffff16636352211e856040518263ffffffff1660e01b81526004016118219190613053565b602060405180830381865afa15801561183e573d6000803e3d6000fd5b505050506040513d601f19601f82011682018060405250810190611862919061316c565b73ffffffffffffffffffffffffffffffffffffffff16146118b8576040517f08c379a00000000000000000000000000000000000000000000000000000000081526004016118af9061320b565b60405180910390fd5b6040518060a001604052806001151581526020018481526020013373ffffffffffffffffffffffffffffffffffffffff1681526020018381526020018273ffffffffffffffffffffffffffffffffffffffff168152506005600085815260200190815260200160002060008201518160000160006101000a81548160ff0219169083151502179055506020820151816001015560408201518160020160006101000a81548173ffffffffffffffffffffffffffffffffffffffff021916908373ffffffffffffffffffffffffffffffffffffffff1602179055506060820151816003015560808201518160040160006101000a81548173ffffffffffffffffffffffffffffffffffffffff021916908373ffffffffffffffffffffffffffffffffffffffff1602179055509050508073ffffffffffffffffffffffffffffffffffffffff16837f56c70414e74a5c3a36f4d7822661f950a52445120c261e1aca8eb98162d4e09d84604051611a2d9190613053565b60405180910390a36001600081905550505050565b60066020528060005260406000206000915090508060000160009054906101000a900460ff16908060010154908060020160009054906101000a900473ffffffffffffffffffffffffffffffffffffffff16908060030154905084565b6000600354905090565b611ab1611061565b15611af1576040517f08c379a0000000000000000000000000000000000000000000000000000000008152600401611ae8906130cb565b60405180910390fd5b60026000541415611b37576040517f08c379a0000000000000000000000000000000000000000000000000000000008152600401611b2e90613137565b60405180910390fd5b60026000819055503373ffffffffffffffffffffffffffffffffffffffff16600260009054906101000a900473ffffffffffffffffffffffffffffffffffffffff1673ffffffffffffffffffffffffffffffffffffffff16636352211e846040518263ffffffff1660e01b8152600401611bb19190613053565b602060405180830381865afa158015611bce573d6000803e3d6000fd5b505050506040513d601f19601f82011682018060405250810190611bf2919061316c565b73ffffffffffffffffffffffffffffffffffffffff1614611c48576040517f08c379a0000000000000000000000000000000000000000000000000000000008152600401611c3f9061363e565b60405180910390fd5b60003390506000600660008581526020019081526020016000206040518060800160405290816000820160009054906101000a900460ff16151515158152602001600182015481526020016002820160009054906101000a900473ffffffffffffffffffffffffffffffffffffffff1673ffffffffffffffffffffffffffffffffffffffff1673ffffffffffffffffffffffffffffffffffffffff1681526020016003820154815250509050600081606001511415611d3c576040517f08c379a0000000000000000000000000000000000000000000000000000000008152600401611d3390613510565b60405180910390fd5b8281606001511015611d83576040517f08c379a0000000000000000000000000000000000000000000000000000000008152600401611d7a9061357c565b60405180910390fd5b6000816040015190508073ffffffffffffffffffffffffffffffffffffffff168373ffffffffffffffffffffffffffffffffffffffff161415611dfb576040517f08c379a0000000000000000000000000000000000000000000000000000000008152600401611df2906136aa565b60405180910390fd5b6040518060a001604052806000151581526020018681526020018273ffffffffffffffffffffffffffffffffffffffff16815260200160008152602001600073ffffffffffffffffffffffffffffffffffffffff168152506005600087815260200190815260200160002060008201518160000160006101000a81548160ff0219169083151502179055506020820151816001015560408201518160020160006101000a81548173ffffffffffffffffffffffffffffffffffffffff021916908373ffffffffffffffffffffffffffffffffffffffff1602179055506060820151816003015560808201518160040160006101000a81548173ffffffffffffffffffffffffffffffffffffffff021916908373ffffffffffffffffffffffffffffffffffffffff1602179055509050506000826060015190506040518060800160405280600015158152602001878152602001600073ffffffffffffffffffffffffffffffffffffffff16815260200160008152506006600088815260200190815260200160002060008201518160000160006101000a81548160ff0219169083151502179055506020820151816001015560408201518160020160006101000a81548173ffffffffffffffffffffffffffffffffffffffff021916908373ffffffffffffffffffffffffffffffffffffffff16021790555060608201518160030155905050600260009054906101000a900473ffffffffffffffffffffffffffffffffffffffff1673ffffffffffffffffffffffffffffffffffffffff166342842e0e3384896040518463ffffffff1660e01b8152600401612060939291906136ca565b600060405180830381600087803b15801561207a57600080fd5b505af115801561208e573d6000803e3d6000fd5b5050505080600760008673ffffffffffffffffffffffffffffffffffffffff1673ffffffffffffffffffffffffffffffffffffffff16815260200190815260200160002060008282546120e1919061359c565b925050819055508173ffffffffffffffffffffffffffffffffffffffff168473ffffffffffffffffffffffffffffffffffffffff16877f975c7be5322a86cddffed1e3e0e55471a764ac2764d25176ceb8e17feef9392c866060015160405161214a9190613053565b60405180910390a45050505060016000819055505050565b61216a612bb7565b73ffffffffffffffffffffffffffffffffffffffff166121886116f1565b73ffffffffffffffffffffffffffffffffffffffff16146121de576040517f08c379a00000000000000000000000000000000000000000000000000000000081526004016121d5906133cc565b60405180910390fd5b600073ffffffffffffffffffffffffffffffffffffffff168173ffffffffffffffffffffffffffffffffffffffff16141561224e576040517f08c379a000000000000000000000000000000000000000000000000000000000815260040161224590613773565b60405180910390fd5b61225781612c61565b50565b60076020528060005260406000206000915090505481565b3373ffffffffffffffffffffffffffffffffffffffff16600460009054906101000a900473ffffffffffffffffffffffffffffffffffffffff1673ffffffffffffffffffffffffffffffffffffffff1614612302576040517f08c379a00000000000000000000000000000000000000000000000000000000081526004016122f990613805565b60405180910390fd5b8060038190555050565b612314611061565b15612354576040517f08c379a000000000000000000000000000000000000000000000000000000000815260040161234b906130cb565b60405180910390fd5b6002600054141561239a576040517f08c379a000000000000000000000000000000000000000000000000000000000815260040161239190613137565b60405180910390fd5b60026000819055506000600560008381526020019081526020016000206040518060a00160405290816000820160009054906101000a900460ff16151515158152602001600182015481526020016002820160009054906101000a900473ffffffffffffffffffffffffffffffffffffffff1673ffffffffffffffffffffffffffffffffffffffff1673ffffffffffffffffffffffffffffffffffffffff168152602001600382015481526020016004820160009054906101000a900473ffffffffffffffffffffffffffffffffffffffff1673ffffffffffffffffffffffffffffffffffffffff1673ffffffffffffffffffffffffffffffffffffffff1681525050905080600001516124e3576040517f08c379a00000000000000000000000000000000000000000000000000000000081526004016124da90613871565b60405180910390fd5b600073ffffffffffffffffffffffffffffffffffffffff16816080015173ffffffffffffffffffffffffffffffffffffffff161415801561255457503373ffffffffffffffffffffffffffffffffffffffff16816080015173ffffffffffffffffffffffffffffffffffffffff1614155b1561255e57600080fd5b806060015134146125a4576040517f08c379a000000000000000000000000000000000000000000000000000000000815260040161259b906138dd565b60405180910390fd5b6000816040015190503373ffffffffffffffffffffffffffffffffffffffff168173ffffffffffffffffffffffffffffffffffffffff16141561261c576040517f08c379a000000000000000000000000000000000000000000000000000000000815260040161261390613949565b60405180910390fd5b600260009054906101000a900473ffffffffffffffffffffffffffffffffffffffff1673ffffffffffffffffffffffffffffffffffffffff16636352211e846040518263ffffffff1660e01b81526004016126779190613053565b602060405180830381865afa158015612694573d6000803e3d6000fd5b505050506040513d601f19601f820116820180604052508101906126b8919061316c565b73ffffffffffffffffffffffffffffffffffffffff168173ffffffffffffffffffffffffffffffffffffffff1614612725576040517f08c379a000000000000000000000000000000000000000000000000000000000815260040161271c906139b5565b60405180910390fd5b6040518060a001604052806000151581526020018481526020013373ffffffffffffffffffffffffffffffffffffffff16815260200160008152602001600073ffffffffffffffffffffffffffffffffffffffff168152506005600085815260200190815260200160002060008201518160000160006101000a81548160ff0219169083151502179055506020820151816001015560408201518160020160006101000a81548173ffffffffffffffffffffffffffffffffffffffff021916908373ffffffffffffffffffffffffffffffffffffffff1602179055506060820151816003015560808201518160040160006101000a81548173ffffffffffffffffffffffffffffffffffffffff021916908373ffffffffffffffffffffffffffffffffffffffff160217905550905050600260009054906101000a900473ffffffffffffffffffffffffffffffffffffffff1673ffffffffffffffffffffffffffffffffffffffff166342842e0e8233866040518463ffffffff1660e01b81526004016128b4939291906136ca565b600060405180830381600087803b1580156128ce57600080fd5b505af11580156128e2573d6000803e3d6000fd5b5050505034600760008373ffffffffffffffffffffffffffffffffffffffff1673ffffffffffffffffffffffffffffffffffffffff1681526020019081526020016000206000828254612935919061359c565b925050819055503373ffffffffffffffffffffffffffffffffffffffff168173ffffffffffffffffffffffffffffffffffffffff16847f975c7be5322a86cddffed1e3e0e55471a764ac2764d25176ceb8e17feef9392c3460405161299a9190613053565b60405180910390a46000600660008581526020019081526020016000206040518060800160405290816000820160009054906101000a900460ff16151515158152602001600182015481526020016002820160009054906101000a900473ffffffffffffffffffffffffffffffffffffffff1673ffffffffffffffffffffffffffffffffffffffff1673ffffffffffffffffffffffffffffffffffffffff16815260200160038201548152505090503373ffffffffffffffffffffffffffffffffffffffff16816040015173ffffffffffffffffffffffffffffffffffffffff161415612ba9578060600151600760003373ffffffffffffffffffffffffffffffffffffffff1673ffffffffffffffffffffffffffffffffffffffff1681526020019081526020016000206000828254612ad4919061359c565b925050819055506040518060800160405280600015158152602001858152602001600073ffffffffffffffffffffffffffffffffffffffff16815260200160008152506006600086815260200190815260200160002060008201518160000160006101000a81548160ff0219169083151502179055506020820151816001015560408201518160020160006101000a81548173ffffffffffffffffffffffffffffffffffffffff021916908373ffffffffffffffffffffffffffffffffffffffff160217905550606082015181600301559050505b505050600160008190555050565b600033905090565b612bc7611061565b612c06576040517f08c379a0000000000000000000000000000000000000000000000000000000008152600401612bfd90613360565b60405180910390fd5b6000600160006101000a81548160ff0219169083151502179055507f5db9ee0a495bf2e6ff9c91a7834c1ba4fdd244a5e8aa4e537bd38aeae4b073aa612c4a612bb7565b604051612c579190612e07565b60405180910390a1565b600060018054906101000a900473ffffffffffffffffffffffffffffffffffffffff169050816001806101000a81548173ffffffffffffffffffffffffffffffffffffffff021916908373ffffffffffffffffffffffffffffffffffffffff1602179055508173ffffffffffffffffffffffffffffffffffffffff168173ffffffffffffffffffffffffffffffffffffffff167f8be0079c531659141344cd1fd0a4f28419497f9722a3daafe3b4186f6b6457e060405160405180910390a35050565b612d2c611061565b15612d6c576040517f08c379a0000000000000000000000000000000000000000000000000000000008152600401612d63906130cb565b60405180910390fd5b60018060006101000a81548160ff0219169083151502179055507f62e78cea01bee320cd4e420270b5ea74000d11b0c9f74754ebdbfc544b05a258612daf612bb7565b604051612dbc9190612e07565b60405180910390a1565b600073ffffffffffffffffffffffffffffffffffffffff82169050919050565b6000612df182612dc6565b9050919050565b612e0181612de6565b82525050565b6000602082019050612e1c6000830184612df8565b92915050565b600080fd5b6000819050919050565b612e3a81612e27565b8114612e4557600080fd5b50565b600081359050612e5781612e31565b92915050565b60008060408385031215612e7457612e73612e22565b5b6000612e8285828601612e48565b9250506020612e9385828601612e48565b9150509250929050565b600060208284031215612eb357612eb2612e22565b5b6000612ec184828501612e48565b91505092915050565b60008115159050919050565b612edf81612eca565b82525050565b612eee81612e27565b82525050565b600060a082019050612f096000830188612ed6565b612f166020830187612ee5565b612f236040830186612df8565b612f306060830185612ee5565b612f3d6080830184612df8565b9695505050505050565b6000602082019050612f5c6000830184612ed6565b92915050565b612f6b81612de6565b8114612f7657600080fd5b50565b600081359050612f8881612f62565b92915050565b600060208284031215612fa457612fa3612e22565b5b6000612fb284828501612f79565b91505092915050565b600080600060608486031215612fd457612fd3612e22565b5b6000612fe286828701612e48565b9350506020612ff386828701612e48565b925050604061300486828701612f79565b9150509250925092565b60006080820190506130236000830187612ed6565b6130306020830186612ee5565b61303d6040830185612df8565b61304a6060830184612ee5565b95945050505050565b60006020820190506130686000830184612ee5565b92915050565b600082825260208201905092915050565b7f5061757361626c653a2070617573656400000000000000000000000000000000600082015250565b60006130b560108361306e565b91506130c08261307f565b602082019050919050565b600060208201905081810360008301526130e4816130a8565b9050919050565b7f5265656e7472616e637947756172643a207265656e7472616e742063616c6c00600082015250565b6000613121601f8361306e565b915061312c826130eb565b602082019050919050565b6000602082019050818103600083015261315081613114565b9050919050565b60008151905061316681612f62565b92915050565b60006020828403121561318257613181612e22565b5b600061319084828501613157565b91505092915050565b7f796f7520617265206e6f7420746865206f776e6572206f66207468697320746f60008201527f6b656e0000000000000000000000000000000000000000000000000000000000602082015250565b60006131f560238361306e565b915061320082613199565b604082019050919050565b60006020820190508181036000830152613224816131e8565b9050919050565b7f4e487b7100000000000000000000000000000000000000000000000000000000600052601160045260246000fd5b600061326582612e27565b915061327083612e27565b9250817fffffffffffffffffffffffffffffffffffffffffffffffffffffffffffffffff04831182151516156132a9576132a861322b565b5b828202905092915050565b7f4e487b7100000000000000000000000000000000000000000000000000000000600052601260045260246000fd5b60006132ee82612e27565b91506132f983612e27565b925082613309576133086132b4565b5b828204905092915050565b7f5061757361626c653a206e6f7420706175736564000000000000000000000000600082015250565b600061334a60148361306e565b915061335582613314565b602082019050919050565b600060208201905081810360008301526133798161333d565b9050919050565b7f4f776e61626c653a2063616c6c6572206973206e6f7420746865206f776e6572600082015250565b60006133b660208361306e565b91506133c182613380565b602082019050919050565b600060208201905081810360008301526133e5816133a9565b9050919050565b7f74686520626964646572206973206e6f74206d6573736167652073656e646572600082015250565b600061342260208361306e565b915061342d826133ec565b602082019050919050565b6000602082019050818103600083015261345181613415565b9050919050565b7f796f7520616c7265616479206f776e2074686973207068756e6b000000000000600082015250565b600061348e601a8361306e565b915061349982613458565b602082019050919050565b600060208201905081810360008301526134bd81613481565b9050919050565b7f63616e6e6f7420656e74657220626964206f66207a65726f0000000000000000600082015250565b60006134fa60188361306e565b9150613505826134c4565b602082019050919050565b60006020820190508181036000830152613529816134ed565b9050919050565b7f796f75722062696420697320746f6f206c6f7700000000000000000000000000600082015250565b600061356660138361306e565b915061357182613530565b602082019050919050565b6000602082019050818103600083015261359581613559565b9050919050565b60006135a782612e27565b91506135b283612e27565b9250827fffffffffffffffffffffffffffffffffffffffffffffffffffffffffffffffff038211156135e7576135e661322b565b5b828201905092915050565b7f796f7520646f206e6f74206f776e207468697320746f6b656e00000000000000600082015250565b600061362860198361306e565b9150613633826135f2565b602082019050919050565b600060208201905081810360008301526136578161361b565b9050919050565b7f796f7520616c7265616479206f776e207468697320746f6b656e000000000000600082015250565b6000613694601a8361306e565b915061369f8261365e565b602082019050919050565b600060208201905081810360008301526136c381613687565b9050919050565b60006060820190506136df6000830186612df8565b6136ec6020830185612df8565b6136f96040830184612ee5565b949350505050565b7f4f776e61626c653a206e6577206f776e657220697320746865207a65726f206160008201527f6464726573730000000000000000000000000000000000000000000000000000602082015250565b600061375d60268361306e565b915061376882613701565b604082019050919050565b6000602082019050818103600083015261378c81613750565b9050919050565b7f4f6e6c79206d61726b6574706c616365206f776e65722063616e20757064617460008201527f65206c697374696e67204665652e000000000000000000000000000000000000602082015250565b60006137ef602e8361306e565b91506137fa82613793565b604082019050919050565b6000602082019050818103600083015261381e816137e2565b9050919050565b7f7068756e6b206973206e6f7420666f722073616c650000000000000000000000600082015250565b600061385b60158361306e565b915061386682613825565b602082019050919050565b6000602082019050818103600083015261388a8161384e565b9050919050565b7f6e6f7420656e6f75676820657468657200000000000000000000000000000000600082015250565b60006138c760108361306e565b91506138d282613891565b602082019050919050565b600060208201905081810360008301526138f6816138ba565b9050919050565b7f73656c6c6572203d3d206d73672e73656e646572000000000000000000000000600082015250565b600061393360148361306e565b915061393e826138fd565b602082019050919050565b6000602082019050818103600083015261396281613926565b9050919050565b7f73656c6c6572206e6f206c6f6e676572206f776e6572206f66207068756e6b00600082015250565b600061399f601f8361306e565b91506139aa82613969565b602082019050919050565b600060208201905081810360008301526139ce81613992565b905091905056fea26469706673582212204f5053dc707c82e0e5eb017ee4c3d999e6a8a0be9c40b3949a468ba9a8e1967f64736f6c634300080b0033",
  "linkReferences": {},
  "deployedLinkReferences": {}
}