{
  "_format": "hh-sol-artifact-1",
  "contractName": "NFTMarket",
  "sourceName": "contracts/NFTMarketplace.sol",
  "abi": [
    {
      "inputs": [
        {
          "internalType": "address",
          "name": "_owner",
          "type": "address"
        }
      ],
      "stateMutability": "nonpayable",
      "type": "constructor"
    },
    {
      "anonymous": false,
      "inputs": [
        {
          "indexed": true,
          "internalType": "uint256",
          "name": "itemId",
          "type": "uint256"
        },
        {
          "indexed": true,
          "internalType": "address",
          "name": "nftContract",
          "type": "address"
        },
        {
          "indexed": true,
          "internalType": "uint256",
          "name": "tokenId",
          "type": "uint256"
        },
        {
          "indexed": false,
          "internalType": "address",
          "name": "seller",
          "type": "address"
        },
        {
          "indexed": false,
          "internalType": "address",
          "name": "owner",
          "type": "address"
        },
        {
          "indexed": false,
          "internalType": "uint256",
          "name": "price",
          "type": "uint256"
        },
        {
          "indexed": false,
          "internalType": "bool",
          "name": "sold",
          "type": "bool"
        }
      ],
      "name": "MarketItemCreated",
      "type": "event"
    },
    {
      "inputs": [
        {
          "internalType": "address",
          "name": "nftContract",
          "type": "address"
        },
        {
          "internalType": "uint256",
          "name": "tokenId",
          "type": "uint256"
        },
        {
          "internalType": "uint256",
          "name": "price",
          "type": "uint256"
        }
      ],
      "name": "createMarketItem",
      "outputs": [],
      "stateMutability": "payable",
      "type": "function"
    },
    {
      "inputs": [
        {
          "internalType": "address",
          "name": "nftContract",
          "type": "address"
        },
        {
          "internalType": "uint256",
          "name": "itemId",
          "type": "uint256"
        }
      ],
      "name": "createMarketSale",
      "outputs": [],
      "stateMutability": "payable",
      "type": "function"
    },
    {
      "inputs": [],
      "name": "fetchItemsCreated",
      "outputs": [
        {
          "components": [
            {
              "internalType": "uint256",
              "name": "itemId",
              "type": "uint256"
            },
            {
              "internalType": "address",
              "name": "nftContract",
              "type": "address"
            },
            {
              "internalType": "uint256",
              "name": "tokenId",
              "type": "uint256"
            },
            {
              "internalType": "address payable",
              "name": "seller",
              "type": "address"
            },
            {
              "internalType": "address payable",
              "name": "owner",
              "type": "address"
            },
            {
              "internalType": "uint256",
              "name": "price",
              "type": "uint256"
            },
            {
              "internalType": "bool",
              "name": "sold",
              "type": "bool"
            }
          ],
          "internalType": "struct NFTMarket.MarketItem[]",
          "name": "",
          "type": "tuple[]"
        }
      ],
      "stateMutability": "view",
      "type": "function"
    },
    {
      "inputs": [
        {
          "internalType": "uint256",
          "name": "_itemId",
          "type": "uint256"
        }
      ],
      "name": "fetchMarketItem",
      "outputs": [
        {
          "components": [
            {
              "internalType": "uint256",
              "name": "itemId",
              "type": "uint256"
            },
            {
              "internalType": "address",
              "name": "nftContract",
              "type": "address"
            },
            {
              "internalType": "uint256",
              "name": "tokenId",
              "type": "uint256"
            },
            {
              "internalType": "address payable",
              "name": "seller",
              "type": "address"
            },
            {
              "internalType": "address payable",
              "name": "owner",
              "type": "address"
            },
            {
              "internalType": "uint256",
              "name": "price",
              "type": "uint256"
            },
            {
              "internalType": "bool",
              "name": "sold",
              "type": "bool"
            }
          ],
          "internalType": "struct NFTMarket.MarketItem",
          "name": "",
          "type": "tuple"
        }
      ],
      "stateMutability": "view",
      "type": "function"
    },
    {
      "inputs": [],
      "name": "fetchMarketItems",
      "outputs": [
        {
          "components": [
            {
              "internalType": "uint256",
              "name": "itemId",
              "type": "uint256"
            },
            {
              "internalType": "address",
              "name": "nftContract",
              "type": "address"
            },
            {
              "internalType": "uint256",
              "name": "tokenId",
              "type": "uint256"
            },
            {
              "internalType": "address payable",
              "name": "seller",
              "type": "address"
            },
            {
              "internalType": "address payable",
              "name": "owner",
              "type": "address"
            },
            {
              "internalType": "uint256",
              "name": "price",
              "type": "uint256"
            },
            {
              "internalType": "bool",
              "name": "sold",
              "type": "bool"
            }
          ],
          "internalType": "struct NFTMarket.MarketItem[]",
          "name": "",
          "type": "tuple[]"
        }
      ],
      "stateMutability": "view",
      "type": "function"
    },
    {
      "inputs": [],
      "name": "fetchMyNFTs",
      "outputs": [
        {
          "components": [
            {
              "internalType": "uint256",
              "name": "itemId",
              "type": "uint256"
            },
            {
              "internalType": "address",
              "name": "nftContract",
              "type": "address"
            },
            {
              "internalType": "uint256",
              "name": "tokenId",
              "type": "uint256"
            },
            {
              "internalType": "address payable",
              "name": "seller",
              "type": "address"
            },
            {
              "internalType": "address payable",
              "name": "owner",
              "type": "address"
            },
            {
              "internalType": "uint256",
              "name": "price",
              "type": "uint256"
            },
            {
              "internalType": "bool",
              "name": "sold",
              "type": "bool"
            }
          ],
          "internalType": "struct NFTMarket.MarketItem[]",
          "name": "",
          "type": "tuple[]"
        }
      ],
      "stateMutability": "view",
      "type": "function"
    },
    {
      "inputs": [],
      "name": "getListingFee",
      "outputs": [
        {
          "internalType": "uint256",
          "name": "",
          "type": "uint256"
        }
      ],
      "stateMutability": "view",
      "type": "function"
    },
    {
      "inputs": [
        {
          "internalType": "address",
          "name": "nftContract",
          "type": "address"
        },
        {
          "internalType": "uint256",
          "name": "tokenId",
          "type": "uint256"
        },
        {
          "internalType": "uint256",
          "name": "price",
          "type": "uint256"
        }
      ],
      "name": "resellToken",
      "outputs": [],
      "stateMutability": "payable",
      "type": "function"
    },
    {
      "inputs": [
        {
          "internalType": "uint256",
          "name": "_listingFee",
          "type": "uint256"
        }
      ],
      "name": "updateListingFee",
      "outputs": [],
      "stateMutability": "payable",
      "type": "function"
    }
  ],
  "bytecode": "0x608060405260146003553480156200001657600080fd5b50604051620022c0380380620022c083398181016040528101906200003c9190620000f6565b600160008190555080600460006101000a81548173ffffffffffffffffffffffffffffffffffffffff021916908373ffffffffffffffffffffffffffffffffffffffff1602179055505062000128565b600080fd5b600073ffffffffffffffffffffffffffffffffffffffff82169050919050565b6000620000be8262000091565b9050919050565b620000d081620000b1565b8114620000dc57600080fd5b50565b600081519050620000f081620000c5565b92915050565b6000602082840312156200010f576200010e6200008c565b5b60006200011f84828501620000df565b91505092915050565b61218880620001386000396000f3fe6080604052600436106100865760003560e01c8063b23e1ad911610059578063b23e1ad91461013a578063b8fe6abe14610156578063c23b139e14610181578063f064c32e1461019d578063f79d91ae146101c857610086565b80630f08efe01461008b578063202e3740146100b65780632a45b250146100e157806358eb2df51461011e575b600080fd5b34801561009757600080fd5b506100a06101e4565b6040516100ad91906118ef565b60405180910390f35b3480156100c257600080fd5b506100cb6104ae565b6040516100d891906118ef565b60405180910390f35b3480156100ed57600080fd5b5061010860048036038101906101039190611942565b6107fc565b60405161011591906119fd565b60405180910390f35b61013860048036038101906101339190611a44565b610964565b005b610154600480360381019061014f9190611a44565b610ce6565b005b34801561016257600080fd5b5061016b610f58565b6040516101789190611aa6565b60405180910390f35b61019b60048036038101906101969190611ac1565b610f62565b005b3480156101a957600080fd5b506101b2611233565b6040516101bf91906118ef565b60405180910390f35b6101e260048036038101906101dd9190611942565b611581565b005b606060006101f2600161161b565b90506000610200600261161b565b61020a600161161b565b6102149190611b30565b90506000808267ffffffffffffffff81111561023357610232611b64565b5b60405190808252806020026020018201604052801561026c57816020015b61025961169b565b8152602001906001900390816102515790505b50905060005b848110156104a357600073ffffffffffffffffffffffffffffffffffffffff16600560006001846102a39190611b93565b815260200190815260200160002060040160009054906101000a900473ffffffffffffffffffffffffffffffffffffffff1673ffffffffffffffffffffffffffffffffffffffff1614156104905760006001826103009190611b93565b90506000600560008381526020019081526020016000209050806040518060e0016040529081600082015481526020016001820160009054906101000a900473ffffffffffffffffffffffffffffffffffffffff1673ffffffffffffffffffffffffffffffffffffffff1673ffffffffffffffffffffffffffffffffffffffff168152602001600282015481526020016003820160009054906101000a900473ffffffffffffffffffffffffffffffffffffffff1673ffffffffffffffffffffffffffffffffffffffff1673ffffffffffffffffffffffffffffffffffffffff1681526020016004820160009054906101000a900473ffffffffffffffffffffffffffffffffffffffff1673ffffffffffffffffffffffffffffffffffffffff1673ffffffffffffffffffffffffffffffffffffffff168152602001600582015481526020016006820160009054906101000a900460ff16151515158152505084868151811061047357610472611be9565b5b602002602001018190525060018561048b9190611b93565b945050505b808061049b90611c18565b915050610272565b508094505050505090565b606060006104bc600161161b565b905060008060005b83811015610565573373ffffffffffffffffffffffffffffffffffffffff16600560006001846104f49190611b93565b815260200190815260200160002060040160009054906101000a900473ffffffffffffffffffffffffffffffffffffffff1673ffffffffffffffffffffffffffffffffffffffff1614156105525760018361054f9190611b93565b92505b808061055d90611c18565b9150506104c4565b5060008267ffffffffffffffff81111561058257610581611b64565b5b6040519080825280602002602001820160405280156105bb57816020015b6105a861169b565b8152602001906001900390816105a05790505b50905060005b848110156107f1573373ffffffffffffffffffffffffffffffffffffffff16600560006001846105f19190611b93565b815260200190815260200160002060040160009054906101000a900473ffffffffffffffffffffffffffffffffffffffff1673ffffffffffffffffffffffffffffffffffffffff1614156107de57600060018261064e9190611b93565b90506000600560008381526020019081526020016000209050806040518060e0016040529081600082015481526020016001820160009054906101000a900473ffffffffffffffffffffffffffffffffffffffff1673ffffffffffffffffffffffffffffffffffffffff1673ffffffffffffffffffffffffffffffffffffffff168152602001600282015481526020016003820160009054906101000a900473ffffffffffffffffffffffffffffffffffffffff1673ffffffffffffffffffffffffffffffffffffffff1673ffffffffffffffffffffffffffffffffffffffff1681526020016004820160009054906101000a900473ffffffffffffffffffffffffffffffffffffffff1673ffffffffffffffffffffffffffffffffffffffff1673ffffffffffffffffffffffffffffffffffffffff168152602001600582015481526020016006820160009054906101000a900460ff1615151515815250508486815181106107c1576107c0611be9565b5b60200260200101819052506001856107d99190611b93565b945050505b80806107e990611c18565b9150506105c1565b508094505050505090565b61080461169b565b600560008381526020019081526020016000206040518060e0016040529081600082015481526020016001820160009054906101000a900473ffffffffffffffffffffffffffffffffffffffff1673ffffffffffffffffffffffffffffffffffffffff1673ffffffffffffffffffffffffffffffffffffffff168152602001600282015481526020016003820160009054906101000a900473ffffffffffffffffffffffffffffffffffffffff1673ffffffffffffffffffffffffffffffffffffffff1673ffffffffffffffffffffffffffffffffffffffff1681526020016004820160009054906101000a900473ffffffffffffffffffffffffffffffffffffffff1673ffffffffffffffffffffffffffffffffffffffff1673ffffffffffffffffffffffffffffffffffffffff168152602001600582015481526020016006820160009054906101000a900460ff1615151515815250509050919050565b600260005414156109aa576040517f08c379a00000000000000000000000000000000000000000000000000000000081526004016109a190611cbe565b60405180910390fd5b6002600081905550600081116109f5576040517f08c379a00000000000000000000000000000000000000000000000000000000081526004016109ec90611d2a565b60405180910390fd5b60006103e860035483610a089190611d4a565b610a129190611dd3565b9050803414610a56576040517f08c379a0000000000000000000000000000000000000000000000000000000008152600401610a4d90611e76565b60405180910390fd5b610a606001611629565b6000610a6c600161161b565b90506040518060e001604052808281526020018673ffffffffffffffffffffffffffffffffffffffff1681526020018581526020013373ffffffffffffffffffffffffffffffffffffffff168152602001600073ffffffffffffffffffffffffffffffffffffffff16815260200184815260200160001515815250600560008381526020019081526020016000206000820151816000015560208201518160010160006101000a81548173ffffffffffffffffffffffffffffffffffffffff021916908373ffffffffffffffffffffffffffffffffffffffff1602179055506040820151816002015560608201518160030160006101000a81548173ffffffffffffffffffffffffffffffffffffffff021916908373ffffffffffffffffffffffffffffffffffffffff16021790555060808201518160040160006101000a81548173ffffffffffffffffffffffffffffffffffffffff021916908373ffffffffffffffffffffffffffffffffffffffff16021790555060a0820151816005015560c08201518160060160006101000a81548160ff0219169083151502179055509050508473ffffffffffffffffffffffffffffffffffffffff166323b872dd3330876040518463ffffffff1660e01b8152600401610c4d93929190611ea5565b600060405180830381600087803b158015610c6757600080fd5b505af1158015610c7b573d6000803e3d6000fd5b50505050838573ffffffffffffffffffffffffffffffffffffffff16827f045dfa01dcba2b36aba1d3dc4a874f4b0c5d2fbeb8d2c4b34a7d88c8d8f929d1336000886000604051610ccf9493929190611eeb565b60405180910390a450506001600081905550505050565b3373ffffffffffffffffffffffffffffffffffffffff166005600084815260200190815260200160002060040160009054906101000a900473ffffffffffffffffffffffffffffffffffffffff1673ffffffffffffffffffffffffffffffffffffffff1614610d8a576040517f08c379a0000000000000000000000000000000000000000000000000000000008152600401610d8190611fa2565b60405180910390fd5b6103e860035482610d9b9190611d4a565b610da59190611dd3565b3414610de6576040517f08c379a0000000000000000000000000000000000000000000000000000000008152600401610ddd90611e76565b60405180910390fd5b60006005600084815260200190815260200160002060060160006101000a81548160ff021916908315150217905550806005600084815260200190815260200160002060050181905550336005600084815260200190815260200160002060030160006101000a81548173ffffffffffffffffffffffffffffffffffffffff021916908373ffffffffffffffffffffffffffffffffffffffff160217905550306005600084815260200190815260200160002060040160006101000a81548173ffffffffffffffffffffffffffffffffffffffff021916908373ffffffffffffffffffffffffffffffffffffffff160217905550610ee4600261163f565b8273ffffffffffffffffffffffffffffffffffffffff166323b872dd3330856040518463ffffffff1660e01b8152600401610f2193929190611ea5565b600060405180830381600087803b158015610f3b57600080fd5b505af1158015610f4f573d6000803e3d6000fd5b50505050505050565b6000600354905090565b60026000541415610fa8576040517f08c379a0000000000000000000000000000000000000000000000000000000008152600401610f9f90611cbe565b60405180910390fd5b6002600081905550600060056000838152602001908152602001600020600501549050600060056000848152602001908152602001600020600201549050813414611028576040517f08c379a000000000000000000000000000000000000000000000000000000000815260040161101f90612034565b60405180910390fd5b6005600084815260200190815260200160002060030160009054906101000a900473ffffffffffffffffffffffffffffffffffffffff1673ffffffffffffffffffffffffffffffffffffffff166108fc349081150290604051600060405180830381858888f193505050501580156110a4573d6000803e3d6000fd5b508373ffffffffffffffffffffffffffffffffffffffff166323b872dd3033846040518463ffffffff1660e01b81526004016110e293929190611ea5565b600060405180830381600087803b1580156110fc57600080fd5b505af1158015611110573d6000803e3d6000fd5b50505050336005600085815260200190815260200160002060040160006101000a81548173ffffffffffffffffffffffffffffffffffffffff021916908373ffffffffffffffffffffffffffffffffffffffff16021790555060016005600085815260200190815260200160002060060160006101000a81548160ff0219169083151502179055506111a26002611629565b600460009054906101000a900473ffffffffffffffffffffffffffffffffffffffff1673ffffffffffffffffffffffffffffffffffffffff166108fc6103e8600354856111ef9190611d4a565b6111f99190611dd3565b9081150290604051600060405180830381858888f19350505050158015611224573d6000803e3d6000fd5b50505060016000819055505050565b60606000611241600161161b565b905060008060005b838110156112ea573373ffffffffffffffffffffffffffffffffffffffff16600560006001846112799190611b93565b815260200190815260200160002060030160009054906101000a900473ffffffffffffffffffffffffffffffffffffffff1673ffffffffffffffffffffffffffffffffffffffff1614156112d7576001836112d49190611b93565b92505b80806112e290611c18565b915050611249565b5060008267ffffffffffffffff81111561130757611306611b64565b5b60405190808252806020026020018201604052801561134057816020015b61132d61169b565b8152602001906001900390816113255790505b50905060005b84811015611576573373ffffffffffffffffffffffffffffffffffffffff16600560006001846113769190611b93565b815260200190815260200160002060030160009054906101000a900473ffffffffffffffffffffffffffffffffffffffff1673ffffffffffffffffffffffffffffffffffffffff1614156115635760006001826113d39190611b93565b90506000600560008381526020019081526020016000209050806040518060e0016040529081600082015481526020016001820160009054906101000a900473ffffffffffffffffffffffffffffffffffffffff1673ffffffffffffffffffffffffffffffffffffffff1673ffffffffffffffffffffffffffffffffffffffff168152602001600282015481526020016003820160009054906101000a900473ffffffffffffffffffffffffffffffffffffffff1673ffffffffffffffffffffffffffffffffffffffff1673ffffffffffffffffffffffffffffffffffffffff1681526020016004820160009054906101000a900473ffffffffffffffffffffffffffffffffffffffff1673ffffffffffffffffffffffffffffffffffffffff1673ffffffffffffffffffffffffffffffffffffffff168152602001600582015481526020016006820160009054906101000a900460ff16151515158152505084868151811061154657611545611be9565b5b602002602001018190525060018561155e9190611b93565b945050505b808061156e90611c18565b915050611346565b508094505050505090565b3373ffffffffffffffffffffffffffffffffffffffff16600460009054906101000a900473ffffffffffffffffffffffffffffffffffffffff1673ffffffffffffffffffffffffffffffffffffffff1614611611576040517f08c379a0000000000000000000000000000000000000000000000000000000008152600401611608906120c6565b60405180910390fd5b8060038190555050565b600081600001549050919050565b6001816000016000828254019250508190555050565b6000816000015490506000811161168b576040517f08c379a000000000000000000000000000000000000000000000000000000000815260040161168290612132565b60405180910390fd5b6001810382600001819055505050565b6040518060e0016040528060008152602001600073ffffffffffffffffffffffffffffffffffffffff16815260200160008152602001600073ffffffffffffffffffffffffffffffffffffffff168152602001600073ffffffffffffffffffffffffffffffffffffffff168152602001600081526020016000151581525090565b600081519050919050565b600082825260208201905092915050565b6000819050602082019050919050565b6000819050919050565b61175b81611748565b82525050565b600073ffffffffffffffffffffffffffffffffffffffff82169050919050565b600061178c82611761565b9050919050565b61179c81611781565b82525050565b60006117ad82611761565b9050919050565b6117bd816117a2565b82525050565b60008115159050919050565b6117d8816117c3565b82525050565b60e0820160008201516117f46000850182611752565b5060208201516118076020850182611793565b50604082015161181a6040850182611752565b50606082015161182d60608501826117b4565b50608082015161184060808501826117b4565b5060a082015161185360a0850182611752565b5060c082015161186660c08501826117cf565b50505050565b600061187883836117de565b60e08301905092915050565b6000602082019050919050565b600061189c8261171c565b6118a68185611727565b93506118b183611738565b8060005b838110156118e25781516118c9888261186c565b97506118d483611884565b9250506001810190506118b5565b5085935050505092915050565b600060208201905081810360008301526119098184611891565b905092915050565b600080fd5b61191f81611748565b811461192a57600080fd5b50565b60008135905061193c81611916565b92915050565b60006020828403121561195857611957611911565b5b60006119668482850161192d565b91505092915050565b60e0820160008201516119856000850182611752565b5060208201516119986020850182611793565b5060408201516119ab6040850182611752565b5060608201516119be60608501826117b4565b5060808201516119d160808501826117b4565b5060a08201516119e460a0850182611752565b5060c08201516119f760c08501826117cf565b50505050565b600060e082019050611a12600083018461196f565b92915050565b611a2181611781565b8114611a2c57600080fd5b50565b600081359050611a3e81611a18565b92915050565b600080600060608486031215611a5d57611a5c611911565b5b6000611a6b86828701611a2f565b9350506020611a7c8682870161192d565b9250506040611a8d8682870161192d565b9150509250925092565b611aa081611748565b82525050565b6000602082019050611abb6000830184611a97565b92915050565b60008060408385031215611ad857611ad7611911565b5b6000611ae685828601611a2f565b9250506020611af78582860161192d565b9150509250929050565b7f4e487b7100000000000000000000000000000000000000000000000000000000600052601160045260246000fd5b6000611b3b82611748565b9150611b4683611748565b925082821015611b5957611b58611b01565b5b828203905092915050565b7f4e487b7100000000000000000000000000000000000000000000000000000000600052604160045260246000fd5b6000611b9e82611748565b9150611ba983611748565b9250827fffffffffffffffffffffffffffffffffffffffffffffffffffffffffffffffff03821115611bde57611bdd611b01565b5b828201905092915050565b7f4e487b7100000000000000000000000000000000000000000000000000000000600052603260045260246000fd5b6000611c2382611748565b91507fffffffffffffffffffffffffffffffffffffffffffffffffffffffffffffffff821415611c5657611c55611b01565b5b600182019050919050565b600082825260208201905092915050565b7f5265656e7472616e637947756172643a207265656e7472616e742063616c6c00600082015250565b6000611ca8601f83611c61565b9150611cb382611c72565b602082019050919050565b60006020820190508181036000830152611cd781611c9b565b9050919050565b7f5072696365206d757374206265206174206c6561737420312077656900000000600082015250565b6000611d14601c83611c61565b9150611d1f82611cde565b602082019050919050565b60006020820190508181036000830152611d4381611d07565b9050919050565b6000611d5582611748565b9150611d6083611748565b9250817fffffffffffffffffffffffffffffffffffffffffffffffffffffffffffffffff0483118215151615611d9957611d98611b01565b5b828202905092915050565b7f4e487b7100000000000000000000000000000000000000000000000000000000600052601260045260246000fd5b6000611dde82611748565b9150611de983611748565b925082611df957611df8611da4565b5b828204905092915050565b7f5072696365206d75737420626520657175616c20746f206c697374696e67207060008201527f7269636500000000000000000000000000000000000000000000000000000000602082015250565b6000611e60602483611c61565b9150611e6b82611e04565b604082019050919050565b60006020820190508181036000830152611e8f81611e53565b9050919050565b611e9f81611781565b82525050565b6000606082019050611eba6000830186611e96565b611ec76020830185611e96565b611ed46040830184611a97565b949350505050565b611ee5816117c3565b82525050565b6000608082019050611f006000830187611e96565b611f0d6020830186611e96565b611f1a6040830185611a97565b611f276060830184611edc565b95945050505050565b7f4f6e6c79206974656d206f776e65722063616e20706572666f726d207468697360008201527f206f7065726174696f6e00000000000000000000000000000000000000000000602082015250565b6000611f8c602a83611c61565b9150611f9782611f30565b604082019050919050565b60006020820190508181036000830152611fbb81611f7f565b9050919050565b7f506c65617365207375626d6974207468652061736b696e67207072696365206960008201527f6e206f7264657220746f20636f6d706c65746520746865207075726368617365602082015250565b600061201e604083611c61565b915061202982611fc2565b604082019050919050565b6000602082019050818103600083015261204d81612011565b9050919050565b7f4f6e6c79206d61726b6574706c616365206f776e65722063616e20757064617460008201527f65206c697374696e67204665652e000000000000000000000000000000000000602082015250565b60006120b0602e83611c61565b91506120bb82612054565b604082019050919050565b600060208201905081810360008301526120df816120a3565b9050919050565b7f436f756e7465723a2064656372656d656e74206f766572666c6f770000000000600082015250565b600061211c601b83611c61565b9150612127826120e6565b602082019050919050565b6000602082019050818103600083015261214b8161210f565b905091905056fea26469706673582212209a0c26c44485184e6f19a685ace119fa5836d0405b775328b243a71b3fc80da364736f6c634300080b0033",
  "linkReferences": {},
  "deployedLinkReferences": {}
}