{
  "_format": "hh-sol-artifact-1",
  "contractName": "NFTMarket",
  "sourceName": "contracts/NFTMarketplace.sol",
  "abi": [
    {
      "inputs": [
        {
          "internalType": "address",
          "name": "_owner",
          "type": "address"
        }
      ],
      "stateMutability": "nonpayable",
      "type": "constructor"
    },
    {
      "anonymous": false,
      "inputs": [
        {
          "indexed": true,
          "internalType": "uint256",
          "name": "itemId",
          "type": "uint256"
        },
        {
          "indexed": true,
          "internalType": "address",
          "name": "nftContract",
          "type": "address"
        },
        {
          "indexed": true,
          "internalType": "uint256",
          "name": "tokenId",
          "type": "uint256"
        },
        {
          "indexed": false,
          "internalType": "address",
          "name": "seller",
          "type": "address"
        },
        {
          "indexed": false,
          "internalType": "address",
          "name": "owner",
          "type": "address"
        },
        {
          "indexed": false,
          "internalType": "uint256",
          "name": "price",
          "type": "uint256"
        },
        {
          "indexed": false,
          "internalType": "bool",
          "name": "sold",
          "type": "bool"
        }
      ],
      "name": "MarketItemCreated",
      "type": "event"
    },
    {
      "inputs": [
        {
          "internalType": "address",
          "name": "nftContract",
          "type": "address"
        },
        {
          "internalType": "uint256",
          "name": "tokenId",
          "type": "uint256"
        },
        {
          "internalType": "uint256",
          "name": "price",
          "type": "uint256"
        }
      ],
      "name": "createMarketItem",
      "outputs": [],
      "stateMutability": "payable",
      "type": "function"
    },
    {
      "inputs": [
        {
          "internalType": "address",
          "name": "nftContract",
          "type": "address"
        },
        {
          "internalType": "uint256",
          "name": "tokenId",
          "type": "uint256"
        }
      ],
      "name": "createMarketSale",
      "outputs": [],
      "stateMutability": "payable",
      "type": "function"
    },
    {
      "inputs": [],
      "name": "fetchItemsCreated",
      "outputs": [
        {
          "components": [
            {
              "internalType": "uint256",
              "name": "itemId",
              "type": "uint256"
            },
            {
              "internalType": "address",
              "name": "nftContract",
              "type": "address"
            },
            {
              "internalType": "uint256",
              "name": "tokenId",
              "type": "uint256"
            },
            {
              "internalType": "address payable",
              "name": "seller",
              "type": "address"
            },
            {
              "internalType": "address payable",
              "name": "owner",
              "type": "address"
            },
            {
              "internalType": "uint256",
              "name": "price",
              "type": "uint256"
            },
            {
              "internalType": "bool",
              "name": "sold",
              "type": "bool"
            }
          ],
          "internalType": "struct NFTMarket.MarketItem[]",
          "name": "",
          "type": "tuple[]"
        }
      ],
      "stateMutability": "view",
      "type": "function"
    },
    {
      "inputs": [
        {
          "internalType": "uint256",
          "name": "_itemId",
          "type": "uint256"
        }
      ],
      "name": "fetchMarketItem",
      "outputs": [
        {
          "components": [
            {
              "internalType": "uint256",
              "name": "itemId",
              "type": "uint256"
            },
            {
              "internalType": "address",
              "name": "nftContract",
              "type": "address"
            },
            {
              "internalType": "uint256",
              "name": "tokenId",
              "type": "uint256"
            },
            {
              "internalType": "address payable",
              "name": "seller",
              "type": "address"
            },
            {
              "internalType": "address payable",
              "name": "owner",
              "type": "address"
            },
            {
              "internalType": "uint256",
              "name": "price",
              "type": "uint256"
            },
            {
              "internalType": "bool",
              "name": "sold",
              "type": "bool"
            }
          ],
          "internalType": "struct NFTMarket.MarketItem",
          "name": "",
          "type": "tuple"
        }
      ],
      "stateMutability": "view",
      "type": "function"
    },
    {
      "inputs": [],
      "name": "fetchMarketItems",
      "outputs": [
        {
          "components": [
            {
              "internalType": "uint256",
              "name": "itemId",
              "type": "uint256"
            },
            {
              "internalType": "address",
              "name": "nftContract",
              "type": "address"
            },
            {
              "internalType": "uint256",
              "name": "tokenId",
              "type": "uint256"
            },
            {
              "internalType": "address payable",
              "name": "seller",
              "type": "address"
            },
            {
              "internalType": "address payable",
              "name": "owner",
              "type": "address"
            },
            {
              "internalType": "uint256",
              "name": "price",
              "type": "uint256"
            },
            {
              "internalType": "bool",
              "name": "sold",
              "type": "bool"
            }
          ],
          "internalType": "struct NFTMarket.MarketItem[]",
          "name": "",
          "type": "tuple[]"
        }
      ],
      "stateMutability": "view",
      "type": "function"
    },
    {
      "inputs": [],
      "name": "fetchMyNFTs",
      "outputs": [
        {
          "components": [
            {
              "internalType": "uint256",
              "name": "itemId",
              "type": "uint256"
            },
            {
              "internalType": "address",
              "name": "nftContract",
              "type": "address"
            },
            {
              "internalType": "uint256",
              "name": "tokenId",
              "type": "uint256"
            },
            {
              "internalType": "address payable",
              "name": "seller",
              "type": "address"
            },
            {
              "internalType": "address payable",
              "name": "owner",
              "type": "address"
            },
            {
              "internalType": "uint256",
              "name": "price",
              "type": "uint256"
            },
            {
              "internalType": "bool",
              "name": "sold",
              "type": "bool"
            }
          ],
          "internalType": "struct NFTMarket.MarketItem[]",
          "name": "",
          "type": "tuple[]"
        }
      ],
      "stateMutability": "view",
      "type": "function"
    },
    {
      "inputs": [],
      "name": "getListingFee",
      "outputs": [
        {
          "internalType": "uint256",
          "name": "",
          "type": "uint256"
        }
      ],
      "stateMutability": "view",
      "type": "function"
    },
    {
      "inputs": [
        {
          "internalType": "address",
          "name": "nftContract",
          "type": "address"
        },
        {
          "internalType": "uint256",
          "name": "tokenId",
          "type": "uint256"
        },
        {
          "internalType": "uint256",
          "name": "price",
          "type": "uint256"
        }
      ],
      "name": "resellToken",
      "outputs": [],
      "stateMutability": "payable",
      "type": "function"
    },
    {
      "inputs": [
        {
          "internalType": "uint256",
          "name": "_listingFee",
          "type": "uint256"
        }
      ],
      "name": "updateListingFee",
      "outputs": [],
      "stateMutability": "payable",
      "type": "function"
    }
  ],
  "bytecode": "0x6080604052601460035567058d15e1762800006004553480156200002257600080fd5b50604051620021b3380380620021b3833981810160405281019062000048919062000102565b600160008190555080600560006101000a81548173ffffffffffffffffffffffffffffffffffffffff021916908373ffffffffffffffffffffffffffffffffffffffff1602179055505062000134565b600080fd5b600073ffffffffffffffffffffffffffffffffffffffff82169050919050565b6000620000ca826200009d565b9050919050565b620000dc81620000bd565b8114620000e857600080fd5b50565b600081519050620000fc81620000d1565b92915050565b6000602082840312156200011b576200011a62000098565b5b60006200012b84828501620000eb565b91505092915050565b61206f80620001446000396000f3fe6080604052600436106100865760003560e01c8063b23e1ad911610059578063b23e1ad91461013a578063b8fe6abe14610156578063c23b139e14610181578063f064c32e1461019d578063f79d91ae146101c857610086565b80630f08efe01461008b578063202e3740146100b65780632a45b250146100e157806358eb2df51461011e575b600080fd5b34801561009757600080fd5b506100a06101e4565b6040516100ad91906117b0565b60405180910390f35b3480156100c257600080fd5b506100cb6104ae565b6040516100d891906117b0565b60405180910390f35b3480156100ed57600080fd5b5061010860048036038101906101039190611803565b6107fc565b60405161011591906118be565b60405180910390f35b61013860048036038101906101339190611905565b610964565b005b610154600480360381019061014f9190611905565b610ce6565b005b34801561016257600080fd5b5061016b610f58565b6040516101789190611967565b60405180910390f35b61019b60048036038101906101969190611982565b610f62565b005b3480156101a957600080fd5b506101b26110f4565b6040516101bf91906117b0565b60405180910390f35b6101e260048036038101906101dd9190611803565b611442565b005b606060006101f260016114dc565b9050600061020060026114dc565b61020a60016114dc565b61021491906119f1565b90506000808267ffffffffffffffff81111561023357610232611a25565b5b60405190808252806020026020018201604052801561026c57816020015b61025961155c565b8152602001906001900390816102515790505b50905060005b848110156104a357600073ffffffffffffffffffffffffffffffffffffffff16600660006001846102a39190611a54565b815260200190815260200160002060040160009054906101000a900473ffffffffffffffffffffffffffffffffffffffff1673ffffffffffffffffffffffffffffffffffffffff1614156104905760006001826103009190611a54565b90506000600660008381526020019081526020016000209050806040518060e0016040529081600082015481526020016001820160009054906101000a900473ffffffffffffffffffffffffffffffffffffffff1673ffffffffffffffffffffffffffffffffffffffff1673ffffffffffffffffffffffffffffffffffffffff168152602001600282015481526020016003820160009054906101000a900473ffffffffffffffffffffffffffffffffffffffff1673ffffffffffffffffffffffffffffffffffffffff1673ffffffffffffffffffffffffffffffffffffffff1681526020016004820160009054906101000a900473ffffffffffffffffffffffffffffffffffffffff1673ffffffffffffffffffffffffffffffffffffffff1673ffffffffffffffffffffffffffffffffffffffff168152602001600582015481526020016006820160009054906101000a900460ff16151515158152505084868151811061047357610472611aaa565b5b602002602001018190525060018561048b9190611a54565b945050505b808061049b90611ad9565b915050610272565b508094505050505090565b606060006104bc60016114dc565b905060008060005b83811015610565573373ffffffffffffffffffffffffffffffffffffffff16600660006001846104f49190611a54565b815260200190815260200160002060040160009054906101000a900473ffffffffffffffffffffffffffffffffffffffff1673ffffffffffffffffffffffffffffffffffffffff1614156105525760018361054f9190611a54565b92505b808061055d90611ad9565b9150506104c4565b5060008267ffffffffffffffff81111561058257610581611a25565b5b6040519080825280602002602001820160405280156105bb57816020015b6105a861155c565b8152602001906001900390816105a05790505b50905060005b848110156107f1573373ffffffffffffffffffffffffffffffffffffffff16600660006001846105f19190611a54565b815260200190815260200160002060040160009054906101000a900473ffffffffffffffffffffffffffffffffffffffff1673ffffffffffffffffffffffffffffffffffffffff1614156107de57600060018261064e9190611a54565b90506000600660008381526020019081526020016000209050806040518060e0016040529081600082015481526020016001820160009054906101000a900473ffffffffffffffffffffffffffffffffffffffff1673ffffffffffffffffffffffffffffffffffffffff1673ffffffffffffffffffffffffffffffffffffffff168152602001600282015481526020016003820160009054906101000a900473ffffffffffffffffffffffffffffffffffffffff1673ffffffffffffffffffffffffffffffffffffffff1673ffffffffffffffffffffffffffffffffffffffff1681526020016004820160009054906101000a900473ffffffffffffffffffffffffffffffffffffffff1673ffffffffffffffffffffffffffffffffffffffff1673ffffffffffffffffffffffffffffffffffffffff168152602001600582015481526020016006820160009054906101000a900460ff1615151515815250508486815181106107c1576107c0611aaa565b5b60200260200101819052506001856107d99190611a54565b945050505b80806107e990611ad9565b9150506105c1565b508094505050505090565b61080461155c565b600660008381526020019081526020016000206040518060e0016040529081600082015481526020016001820160009054906101000a900473ffffffffffffffffffffffffffffffffffffffff1673ffffffffffffffffffffffffffffffffffffffff1673ffffffffffffffffffffffffffffffffffffffff168152602001600282015481526020016003820160009054906101000a900473ffffffffffffffffffffffffffffffffffffffff1673ffffffffffffffffffffffffffffffffffffffff1673ffffffffffffffffffffffffffffffffffffffff1681526020016004820160009054906101000a900473ffffffffffffffffffffffffffffffffffffffff1673ffffffffffffffffffffffffffffffffffffffff1673ffffffffffffffffffffffffffffffffffffffff168152602001600582015481526020016006820160009054906101000a900460ff1615151515815250509050919050565b600260005414156109aa576040517f08c379a00000000000000000000000000000000000000000000000000000000081526004016109a190611b7f565b60405180910390fd5b6002600081905550600081116109f5576040517f08c379a00000000000000000000000000000000000000000000000000000000081526004016109ec90611beb565b60405180910390fd5b60006103e860035483610a089190611c0b565b610a129190611c94565b9050803414610a56576040517f08c379a0000000000000000000000000000000000000000000000000000000008152600401610a4d90611d37565b60405180910390fd5b610a6060016114ea565b6000610a6c60016114dc565b90506040518060e001604052808281526020018673ffffffffffffffffffffffffffffffffffffffff1681526020018581526020013373ffffffffffffffffffffffffffffffffffffffff168152602001600073ffffffffffffffffffffffffffffffffffffffff16815260200184815260200160001515815250600660008381526020019081526020016000206000820151816000015560208201518160010160006101000a81548173ffffffffffffffffffffffffffffffffffffffff021916908373ffffffffffffffffffffffffffffffffffffffff1602179055506040820151816002015560608201518160030160006101000a81548173ffffffffffffffffffffffffffffffffffffffff021916908373ffffffffffffffffffffffffffffffffffffffff16021790555060808201518160040160006101000a81548173ffffffffffffffffffffffffffffffffffffffff021916908373ffffffffffffffffffffffffffffffffffffffff16021790555060a0820151816005015560c08201518160060160006101000a81548160ff0219169083151502179055509050508473ffffffffffffffffffffffffffffffffffffffff166323b872dd3330876040518463ffffffff1660e01b8152600401610c4d93929190611d66565b600060405180830381600087803b158015610c6757600080fd5b505af1158015610c7b573d6000803e3d6000fd5b50505050838573ffffffffffffffffffffffffffffffffffffffff16827f045dfa01dcba2b36aba1d3dc4a874f4b0c5d2fbeb8d2c4b34a7d88c8d8f929d1336000886000604051610ccf9493929190611dac565b60405180910390a450506001600081905550505050565b3373ffffffffffffffffffffffffffffffffffffffff166006600084815260200190815260200160002060040160009054906101000a900473ffffffffffffffffffffffffffffffffffffffff1673ffffffffffffffffffffffffffffffffffffffff1614610d8a576040517f08c379a0000000000000000000000000000000000000000000000000000000008152600401610d8190611e63565b60405180910390fd5b6103e860035482610d9b9190611c0b565b610da59190611c94565b3414610de6576040517f08c379a0000000000000000000000000000000000000000000000000000000008152600401610ddd90611d37565b60405180910390fd5b60006006600084815260200190815260200160002060060160006101000a81548160ff021916908315150217905550806006600084815260200190815260200160002060050181905550336006600084815260200190815260200160002060030160006101000a81548173ffffffffffffffffffffffffffffffffffffffff021916908373ffffffffffffffffffffffffffffffffffffffff160217905550306006600084815260200190815260200160002060040160006101000a81548173ffffffffffffffffffffffffffffffffffffffff021916908373ffffffffffffffffffffffffffffffffffffffff160217905550610ee46002611500565b8273ffffffffffffffffffffffffffffffffffffffff166323b872dd3330856040518463ffffffff1660e01b8152600401610f2193929190611d66565b600060405180830381600087803b158015610f3b57600080fd5b505af1158015610f4f573d6000803e3d6000fd5b50505050505050565b6000600354905090565b60026000541415610fa8576040517f08c379a0000000000000000000000000000000000000000000000000000000008152600401610f9f90611b7f565b60405180910390fd5b60026000819055506004543414610ff4576040517f08c379a0000000000000000000000000000000000000000000000000000000008152600401610feb90611f1b565b60405180910390fd5b8173ffffffffffffffffffffffffffffffffffffffff166323b872dd3033846040518463ffffffff1660e01b815260040161103193929190611d66565b600060405180830381600087803b15801561104b57600080fd5b505af115801561105f573d6000803e3d6000fd5b50505050600560009054906101000a900473ffffffffffffffffffffffffffffffffffffffff1673ffffffffffffffffffffffffffffffffffffffff166108fc6103e86003546004546110b29190611c0b565b6110bc9190611c94565b9081150290604051600060405180830381858888f193505050501580156110e7573d6000803e3d6000fd5b5060016000819055505050565b6060600061110260016114dc565b905060008060005b838110156111ab573373ffffffffffffffffffffffffffffffffffffffff166006600060018461113a9190611a54565b815260200190815260200160002060030160009054906101000a900473ffffffffffffffffffffffffffffffffffffffff1673ffffffffffffffffffffffffffffffffffffffff161415611198576001836111959190611a54565b92505b80806111a390611ad9565b91505061110a565b5060008267ffffffffffffffff8111156111c8576111c7611a25565b5b60405190808252806020026020018201604052801561120157816020015b6111ee61155c565b8152602001906001900390816111e65790505b50905060005b84811015611437573373ffffffffffffffffffffffffffffffffffffffff16600660006001846112379190611a54565b815260200190815260200160002060030160009054906101000a900473ffffffffffffffffffffffffffffffffffffffff1673ffffffffffffffffffffffffffffffffffffffff1614156114245760006001826112949190611a54565b90506000600660008381526020019081526020016000209050806040518060e0016040529081600082015481526020016001820160009054906101000a900473ffffffffffffffffffffffffffffffffffffffff1673ffffffffffffffffffffffffffffffffffffffff1673ffffffffffffffffffffffffffffffffffffffff168152602001600282015481526020016003820160009054906101000a900473ffffffffffffffffffffffffffffffffffffffff1673ffffffffffffffffffffffffffffffffffffffff1673ffffffffffffffffffffffffffffffffffffffff1681526020016004820160009054906101000a900473ffffffffffffffffffffffffffffffffffffffff1673ffffffffffffffffffffffffffffffffffffffff1673ffffffffffffffffffffffffffffffffffffffff168152602001600582015481526020016006820160009054906101000a900460ff16151515158152505084868151811061140757611406611aaa565b5b602002602001018190525060018561141f9190611a54565b945050505b808061142f90611ad9565b915050611207565b508094505050505090565b3373ffffffffffffffffffffffffffffffffffffffff16600560009054906101000a900473ffffffffffffffffffffffffffffffffffffffff1673ffffffffffffffffffffffffffffffffffffffff16146114d2576040517f08c379a00000000000000000000000000000000000000000000000000000000081526004016114c990611fad565b60405180910390fd5b8060038190555050565b600081600001549050919050565b6001816000016000828254019250508190555050565b6000816000015490506000811161154c576040517f08c379a000000000000000000000000000000000000000000000000000000000815260040161154390612019565b60405180910390fd5b6001810382600001819055505050565b6040518060e0016040528060008152602001600073ffffffffffffffffffffffffffffffffffffffff16815260200160008152602001600073ffffffffffffffffffffffffffffffffffffffff168152602001600073ffffffffffffffffffffffffffffffffffffffff168152602001600081526020016000151581525090565b600081519050919050565b600082825260208201905092915050565b6000819050602082019050919050565b6000819050919050565b61161c81611609565b82525050565b600073ffffffffffffffffffffffffffffffffffffffff82169050919050565b600061164d82611622565b9050919050565b61165d81611642565b82525050565b600061166e82611622565b9050919050565b61167e81611663565b82525050565b60008115159050919050565b61169981611684565b82525050565b60e0820160008201516116b56000850182611613565b5060208201516116c86020850182611654565b5060408201516116db6040850182611613565b5060608201516116ee6060850182611675565b5060808201516117016080850182611675565b5060a082015161171460a0850182611613565b5060c082015161172760c0850182611690565b50505050565b6000611739838361169f565b60e08301905092915050565b6000602082019050919050565b600061175d826115dd565b61176781856115e8565b9350611772836115f9565b8060005b838110156117a357815161178a888261172d565b975061179583611745565b925050600181019050611776565b5085935050505092915050565b600060208201905081810360008301526117ca8184611752565b905092915050565b600080fd5b6117e081611609565b81146117eb57600080fd5b50565b6000813590506117fd816117d7565b92915050565b600060208284031215611819576118186117d2565b5b6000611827848285016117ee565b91505092915050565b60e0820160008201516118466000850182611613565b5060208201516118596020850182611654565b50604082015161186c6040850182611613565b50606082015161187f6060850182611675565b5060808201516118926080850182611675565b5060a08201516118a560a0850182611613565b5060c08201516118b860c0850182611690565b50505050565b600060e0820190506118d36000830184611830565b92915050565b6118e281611642565b81146118ed57600080fd5b50565b6000813590506118ff816118d9565b92915050565b60008060006060848603121561191e5761191d6117d2565b5b600061192c868287016118f0565b935050602061193d868287016117ee565b925050604061194e868287016117ee565b9150509250925092565b61196181611609565b82525050565b600060208201905061197c6000830184611958565b92915050565b60008060408385031215611999576119986117d2565b5b60006119a7858286016118f0565b92505060206119b8858286016117ee565b9150509250929050565b7f4e487b7100000000000000000000000000000000000000000000000000000000600052601160045260246000fd5b60006119fc82611609565b9150611a0783611609565b925082821015611a1a57611a196119c2565b5b828203905092915050565b7f4e487b7100000000000000000000000000000000000000000000000000000000600052604160045260246000fd5b6000611a5f82611609565b9150611a6a83611609565b9250827fffffffffffffffffffffffffffffffffffffffffffffffffffffffffffffffff03821115611a9f57611a9e6119c2565b5b828201905092915050565b7f4e487b7100000000000000000000000000000000000000000000000000000000600052603260045260246000fd5b6000611ae482611609565b91507fffffffffffffffffffffffffffffffffffffffffffffffffffffffffffffffff821415611b1757611b166119c2565b5b600182019050919050565b600082825260208201905092915050565b7f5265656e7472616e637947756172643a207265656e7472616e742063616c6c00600082015250565b6000611b69601f83611b22565b9150611b7482611b33565b602082019050919050565b60006020820190508181036000830152611b9881611b5c565b9050919050565b7f5072696365206d757374206265206174206c6561737420312077656900000000600082015250565b6000611bd5601c83611b22565b9150611be082611b9f565b602082019050919050565b60006020820190508181036000830152611c0481611bc8565b9050919050565b6000611c1682611609565b9150611c2183611609565b9250817fffffffffffffffffffffffffffffffffffffffffffffffffffffffffffffffff0483118215151615611c5a57611c596119c2565b5b828202905092915050565b7f4e487b7100000000000000000000000000000000000000000000000000000000600052601260045260246000fd5b6000611c9f82611609565b9150611caa83611609565b925082611cba57611cb9611c65565b5b828204905092915050565b7f5072696365206d75737420626520657175616c20746f206c697374696e67207060008201527f7269636500000000000000000000000000000000000000000000000000000000602082015250565b6000611d21602483611b22565b9150611d2c82611cc5565b604082019050919050565b60006020820190508181036000830152611d5081611d14565b9050919050565b611d6081611642565b82525050565b6000606082019050611d7b6000830186611d57565b611d886020830185611d57565b611d956040830184611958565b949350505050565b611da681611684565b82525050565b6000608082019050611dc16000830187611d57565b611dce6020830186611d57565b611ddb6040830185611958565b611de86060830184611d9d565b95945050505050565b7f4f6e6c79206974656d206f776e65722063616e20706572666f726d207468697360008201527f206f7065726174696f6e00000000000000000000000000000000000000000000602082015250565b6000611e4d602a83611b22565b9150611e5882611df1565b604082019050919050565b60006020820190508181036000830152611e7c81611e40565b9050919050565b7f506c65617365207375626d6974207468652061736b696e672073656c6c50726960008201527f636520696e206f7264657220746f20636f6d706c65746520746865207075726360208201527f6861736500000000000000000000000000000000000000000000000000000000604082015250565b6000611f05604483611b22565b9150611f1082611e83565b606082019050919050565b60006020820190508181036000830152611f3481611ef8565b9050919050565b7f4f6e6c79206d61726b6574706c616365206f776e65722063616e20757064617460008201527f65206c697374696e67204665652e000000000000000000000000000000000000602082015250565b6000611f97602e83611b22565b9150611fa282611f3b565b604082019050919050565b60006020820190508181036000830152611fc681611f8a565b9050919050565b7f436f756e7465723a2064656372656d656e74206f766572666c6f770000000000600082015250565b6000612003601b83611b22565b915061200e82611fcd565b602082019050919050565b6000602082019050818103600083015261203281611ff6565b905091905056fea2646970667358221220dec6c0b31a74070a855a3d21ffa83d8bc9f5f6073ded9902d35ad17e691ae4f764736f6c634300080b0033",
  "linkReferences": {},
  "deployedLinkReferences": {}
}